{
  "contractName": "Auctions",
  "abi": [
    {
      "constant": true,
      "inputs": [
        {
          "name": "",
          "type": "uint256"
        }
      ],
      "name": "auctions",
      "outputs": [
        {
          "name": "name",
          "type": "string"
        },
        {
          "name": "price",
          "type": "uint256"
        },
        {
          "name": "metadata",
          "type": "string"
        },
        {
          "name": "tokenId",
          "type": "uint256"
        },
        {
          "name": "repoAddress",
          "type": "address"
        },
        {
          "name": "owner",
          "type": "address"
        },
        {
          "name": "active",
          "type": "bool"
        },
        {
          "name": "finalized",
          "type": "bool"
        },
        {
          "name": "bidder",
          "type": "address"
        }
      ],
      "payable": false,
      "stateMutability": "view",
      "type": "function",
      "signature": "0x571a26a0"
    },
    {
      "constant": true,
      "inputs": [
        {
          "name": "",
          "type": "uint256"
        },
        {
          "name": "",
          "type": "uint256"
        }
      ],
      "name": "allAuctionsOwner",
      "outputs": [
        {
          "name": "",
          "type": "uint256"
        }
      ],
      "payable": false,
      "stateMutability": "view",
      "type": "function",
      "signature": "0x7b16aa6a"
    },
    {
      "constant": true,
      "inputs": [
        {
          "name": "",
          "type": "address"
        },
        {
          "name": "",
          "type": "uint256"
        }
      ],
      "name": "auctionOwner",
      "outputs": [
        {
          "name": "",
          "type": "uint256"
        }
      ],
      "payable": false,
      "stateMutability": "view",
      "type": "function",
      "signature": "0xc8756cda"
    },
    {
      "payable": false,
      "stateMutability": "nonpayable",
      "type": "fallback"
    },
    {
      "anonymous": false,
      "inputs": [
        {
          "indexed": false,
          "name": "_owner",
          "type": "address"
        },
        {
          "indexed": false,
          "name": "_auctionId",
          "type": "uint256"
        }
      ],
      "name": "AuctionCreated",
      "type": "event",
      "signature": "0x3249a06bd478adf780bb7930214ad005e9cfa517d63221c0b77f27199d1a58b3"
    },
    {
      "anonymous": false,
      "inputs": [
        {
          "indexed": false,
          "name": "_owner",
          "type": "address"
        },
        {
          "indexed": false,
          "name": "_auctionId",
          "type": "uint256"
        }
      ],
      "name": "AuctionFinalized",
      "type": "event",
      "signature": "0x357afab190ee87fe0ef1c717f2728d2904d9e415a069d99f4d9382873cb3279d"
    },
    {
      "constant": false,
      "inputs": [
        {
          "name": "_repoAddress",
          "type": "address"
        },
        {
          "name": "_tokenId",
          "type": "uint256"
        },
        {
          "name": "_auctionTitle",
          "type": "string"
        },
        {
          "name": "_metadata",
          "type": "string"
        },
        {
          "name": "_price",
          "type": "uint256"
        }
      ],
      "name": "createAuction",
      "outputs": [
        {
          "name": "",
          "type": "bool"
        }
      ],
      "payable": false,
      "stateMutability": "nonpayable",
      "type": "function",
      "signature": "0x9472559f"
    },
    {
      "constant": false,
      "inputs": [
        {
          "name": "_auctionId",
          "type": "uint256"
        }
      ],
      "name": "submitBid",
      "outputs": [],
      "payable": true,
      "stateMutability": "payable",
      "type": "function",
      "signature": "0x74bdda15"
    },
    {
      "constant": false,
      "inputs": [
        {
          "name": "_auctionId",
          "type": "uint256"
        },
        {
          "name": "_to",
          "type": "address"
        }
      ],
      "name": "finalizeAuction",
      "outputs": [],
      "payable": false,
      "stateMutability": "nonpayable",
      "type": "function",
      "signature": "0x1626b759"
    },
    {
      "constant": true,
      "inputs": [],
      "name": "getCount",
      "outputs": [
        {
          "name": "",
          "type": "uint256"
        }
      ],
      "payable": false,
      "stateMutability": "view",
      "type": "function",
      "signature": "0xa87d942c"
    },
    {
      "constant": true,
      "inputs": [
        {
          "name": "_owner",
          "type": "address"
        }
      ],
      "name": "getAuctionsOf",
      "outputs": [
        {
          "name": "",
          "type": "uint256[]"
        }
      ],
      "payable": false,
      "stateMutability": "view",
      "type": "function",
      "signature": "0xb1b61bfa"
    },
    {
      "constant": true,
      "inputs": [],
      "name": "getAllAuctionsOf",
      "outputs": [
        {
          "name": "",
          "type": "uint256[]"
        }
      ],
      "payable": false,
      "stateMutability": "view",
      "type": "function",
      "signature": "0x22187400"
    },
    {
      "constant": true,
      "inputs": [
        {
          "name": "_owner",
          "type": "address"
        }
      ],
      "name": "getAuctionsCountOfOwner",
      "outputs": [
        {
          "name": "",
          "type": "uint256"
        }
      ],
      "payable": false,
      "stateMutability": "view",
      "type": "function",
      "signature": "0xd56aa558"
    },
    {
      "constant": true,
      "inputs": [
        {
          "name": "_auctionId",
          "type": "uint256"
        }
      ],
      "name": "getAuctionById",
      "outputs": [
        {
          "name": "name",
          "type": "string"
        },
        {
          "name": "price",
          "type": "uint256"
        },
        {
          "name": "metadata",
          "type": "string"
        },
        {
          "name": "tokenId",
          "type": "uint256"
        },
        {
          "name": "repoAddress",
          "type": "address"
        },
        {
          "name": "owner",
          "type": "address"
        },
        {
          "name": "active",
          "type": "bool"
        },
        {
          "name": "finalized",
          "type": "bool"
        },
        {
          "name": "bidder",
          "type": "address"
        }
      ],
      "payable": false,
      "stateMutability": "view",
      "type": "function",
      "signature": "0x18111ada"
    }
  ],
  "bytecode": "0x608060405234801561001057600080fd5b50611b08806100206000396000f3006080604052600436106100af576000357c0100000000000000000000000000000000000000000000000000000000900463ffffffff1680631626b759146100c157806318111ada1461010e57806322187400146102dd578063571a26a01461034957806374bdda15146105185780637b16aa6a146105385780639472559f14610583578063a87d942c1461067e578063b1b61bfa146106a9578063c8756cda14610741578063d56aa558146107a2575b3480156100bb57600080fd5b50600080fd5b3480156100cd57600080fd5b5061010c60048036038101908080359060200190929190803573ffffffffffffffffffffffffffffffffffffffff1690602001909291905050506107f9565b005b34801561011a57600080fd5b5061013960048036038101908080359060200190929190505050610bb8565b60405180806020018a8152602001806020018981526020018873ffffffffffffffffffffffffffffffffffffffff1673ffffffffffffffffffffffffffffffffffffffff1681526020018773ffffffffffffffffffffffffffffffffffffffff1673ffffffffffffffffffffffffffffffffffffffff16815260200186151515158152602001851515151581526020018473ffffffffffffffffffffffffffffffffffffffff1673ffffffffffffffffffffffffffffffffffffffff16815260200183810383528c818151815260200191508051906020019080838360005b83811015610233578082015181840152602081019050610218565b50505050905090810190601f1680156102605780820380516001836020036101000a031916815260200191505b5083810382528a818151815260200191508051906020019080838360005b8381101561029957808201518184015260208101905061027e565b50505050905090810190601f1680156102c65780820380516001836020036101000a031916815260200191505b509b50505050505050505050505060405180910390f35b3480156102e957600080fd5b506102f2610edf565b6040518080602001828103825283818151815260200191508051906020019060200280838360005b8381101561033557808201518184015260208101905061031a565b505050509050019250505060405180910390f35b34801561035557600080fd5b5061037460048036038101908080359060200190929190505050610f4d565b60405180806020018a8152602001806020018981526020018873ffffffffffffffffffffffffffffffffffffffff1673ffffffffffffffffffffffffffffffffffffffff1681526020018773ffffffffffffffffffffffffffffffffffffffff1673ffffffffffffffffffffffffffffffffffffffff16815260200186151515158152602001851515151581526020018473ffffffffffffffffffffffffffffffffffffffff1673ffffffffffffffffffffffffffffffffffffffff16815260200183810383528c818151815260200191508051906020019080838360005b8381101561046e578082015181840152602081019050610453565b50505050905090810190601f16801561049b5780820380516001836020036101000a031916815260200191505b5083810382528a818151815260200191508051906020019080838360005b838110156104d45780820151818401526020810190506104b9565b50505050905090810190601f1680156105015780820380516001836020036101000a031916815260200191505b509b50505050505050505050505060405180910390f35b61053660048036038101908080359060200190929190505050611154565b005b34801561054457600080fd5b5061056d60048036038101908080359060200190929190803590602001909291905050506111ec565b6040518082815260200191505060405180910390f35b34801561058f57600080fd5b50610664600480360381019080803573ffffffffffffffffffffffffffffffffffffffff16906020019092919080359060200190929190803590602001908201803590602001908080601f0160208091040260200160405190810160405280939291908181526020018383808284378201915050505050509192919290803590602001908201803590602001908080601f01602080910402602001604051908101604052809392919081815260200183838082843782019150505050505091929192908035906020019092919050505061121c565b604051808215151515815260200191505060405180910390f35b34801561068a57600080fd5b506106936116c3565b6040518082815260200191505060405180910390f35b3480156106b557600080fd5b506106ea600480360381019080803573ffffffffffffffffffffffffffffffffffffffff1690602001909291905050506116cf565b6040518080602001828103825283818151815260200191508051906020019060200280838360005b8381101561072d578082015181840152602081019050610712565b505050509050019250505060405180910390f35b34801561074d57600080fd5b5061078c600480360381019080803573ffffffffffffffffffffffffffffffffffffffff1690602001909291908035906020019092919050505061176b565b6040518082815260200191505060405180910390f35b3480156107ae57600080fd5b506107e3600480360381019080803573ffffffffffffffffffffffffffffffffffffffff16906020019092919050505061179b565b6040518082815260200191505060405180910390f35b6108016119a4565b60008381548110151561081057fe5b90600052602060002090600702016101206040519081016040529081600082018054600181600116156101000203166002900480601f0160208091040260200160405190810160405280929190818152602001828054600181600116156101000203166002900480156108c45780601f10610899576101008083540402835291602001916108c4565b820191906000526020600020905b8154815290600101906020018083116108a757829003601f168201915b5050505050815260200160018201548152602001600282018054600181600116156101000203166002900480601f0160208091040260200160405190810160405280929190818152602001828054600181600116156101000203166002900480156109705780601f1061094557610100808354040283529160200191610970565b820191906000526020600020905b81548152906001019060200180831161095357829003601f168201915b50505050508152602001600382015481526020016004820160009054906101000a900473ffffffffffffffffffffffffffffffffffffffff1673ffffffffffffffffffffffffffffffffffffffff1673ffffffffffffffffffffffffffffffffffffffff1681526020016005820160009054906101000a900473ffffffffffffffffffffffffffffffffffffffff1673ffffffffffffffffffffffffffffffffffffffff1673ffffffffffffffffffffffffffffffffffffffff1681526020016005820160149054906101000a900460ff161515151581526020016005820160159054906101000a900460ff161515151581526020016006820160009054906101000a900473ffffffffffffffffffffffffffffffffffffffff1673ffffffffffffffffffffffffffffffffffffffff1673ffffffffffffffffffffffffffffffffffffffff16815250509050610ad13083836080015184606001516117e7565b15610bb35760008084815481101515610ae657fe5b906000526020600020906007020160050160146101000a81548160ff0219169083151502179055506001600084815481101515610b1f57fe5b906000526020600020906007020160050160156101000a81548160ff0219169083151502179055507f357afab190ee87fe0ef1c717f2728d2904d9e415a069d99f4d9382873cb3279d3384604051808373ffffffffffffffffffffffffffffffffffffffff1673ffffffffffffffffffffffffffffffffffffffff1681526020018281526020019250505060405180910390a15b505050565b606060006060600080600080600080610bcf6119a4565b60008b815481101515610bde57fe5b90600052602060002090600702016101206040519081016040529081600082018054600181600116156101000203166002900480601f016020809104026020016040519081016040528092919081815260200182805460018160011615610100020316600290048015610c925780601f10610c6757610100808354040283529160200191610c92565b820191906000526020600020905b815481529060010190602001808311610c7557829003601f168201915b5050505050815260200160018201548152602001600282018054600181600116156101000203166002900480601f016020809104026020016040519081016040528092919081815260200182805460018160011615610100020316600290048015610d3e5780601f10610d1357610100808354040283529160200191610d3e565b820191906000526020600020905b815481529060010190602001808311610d2157829003601f168201915b50505050508152602001600382015481526020016004820160009054906101000a900473ffffffffffffffffffffffffffffffffffffffff1673ffffffffffffffffffffffffffffffffffffffff1673ffffffffffffffffffffffffffffffffffffffff1681526020016005820160009054906101000a900473ffffffffffffffffffffffffffffffffffffffff1673ffffffffffffffffffffffffffffffffffffffff1673ffffffffffffffffffffffffffffffffffffffff1681526020016005820160149054906101000a900460ff161515151581526020016005820160159054906101000a900460ff161515151581526020016006820160009054906101000a900473ffffffffffffffffffffffffffffffffffffffff1673ffffffffffffffffffffffffffffffffffffffff1673ffffffffffffffffffffffffffffffffffffffff16815250509050806000015181602001518260400151836060015184608001518560a001518660c001518760e00151886101000151889850869650995099509950995099509950995099509950509193959799909294969850565b60608060026000808152602001908152602001600020805480602002602001604051908101604052809291908181526020018280548015610f3f57602002820191906000526020600020905b815481526020019060010190808311610f2b575b505050505090508091505090565b600081815481101515610f5c57fe5b9060005260206000209060070201600091509050806000018054600181600116156101000203166002900480601f0160208091040260200160405190810160405280929190818152602001828054600181600116156101000203166002900480156110085780601f10610fdd57610100808354040283529160200191611008565b820191906000526020600020905b815481529060010190602001808311610feb57829003601f168201915b505050505090806001015490806002018054600181600116156101000203166002900480601f0160208091040260200160405190810160405280929190818152602001828054600181600116156101000203166002900480156110ac5780601f10611081576101008083540402835291602001916110ac565b820191906000526020600020905b81548152906001019060200180831161108f57829003601f168201915b5050505050908060030154908060040160009054906101000a900473ffffffffffffffffffffffffffffffffffffffff16908060050160009054906101000a900473ffffffffffffffffffffffffffffffffffffffff16908060050160149054906101000a900460ff16908060050160159054906101000a900460ff16908060060160009054906101000a900473ffffffffffffffffffffffffffffffffffffffff16905089565b3360008281548110151561116457fe5b906000526020600020906007020160060160006101000a81548173ffffffffffffffffffffffffffffffffffffffff021916908373ffffffffffffffffffffffffffffffffffffffff160217905550670de0b6b3a76400006000828154811015156111cb57fe5b90600052602060002090600702016001016000828254019250508190555050565b60026020528160005260406000208181548110151561120757fe5b90600052602060002001600091509150505481565b6000806112276119a4565b878760008273ffffffffffffffffffffffffffffffffffffffff16636352211e836040518263ffffffff167c010000000000000000000000000000000000000000000000000000000002815260040180828152602001915050602060405180830381600087803b15801561129a57600080fd5b505af11580156112ae573d6000803e3d6000fd5b505050506040513d60208110156112c457600080fd5b810190808051906020019092919050505090503073ffffffffffffffffffffffffffffffffffffffff168173ffffffffffffffffffffffffffffffffffffffff1614151561131157600080fd5b600080549050945088846000018190525086846020018181525050878460400181905250898460600181815250508a846080019073ffffffffffffffffffffffffffffffffffffffff16908173ffffffffffffffffffffffffffffffffffffffff1681525050338460a0019073ffffffffffffffffffffffffffffffffffffffff16908173ffffffffffffffffffffffffffffffffffffffff168152505060018460c001901515908115158152505060008460e0019015159081151581525050600084610100019073ffffffffffffffffffffffffffffffffffffffff16908173ffffffffffffffffffffffffffffffffffffffff1681525050600084908060018154018082558091505090600182039060005260206000209060070201600090919290919091506000820151816000019080519060200190611455929190611a37565b5060208201518160010155604082015181600201908051906020019061147c929190611a37565b506060820151816003015560808201518160040160006101000a81548173ffffffffffffffffffffffffffffffffffffffff021916908373ffffffffffffffffffffffffffffffffffffffff16021790555060a08201518160050160006101000a81548173ffffffffffffffffffffffffffffffffffffffff021916908373ffffffffffffffffffffffffffffffffffffffff16021790555060c08201518160050160146101000a81548160ff02191690831515021790555060e08201518160050160156101000a81548160ff0219169083151502179055506101008201518160060160006101000a81548173ffffffffffffffffffffffffffffffffffffffff021916908373ffffffffffffffffffffffffffffffffffffffff160217905550505050600160003373ffffffffffffffffffffffffffffffffffffffff1673ffffffffffffffffffffffffffffffffffffffff168152602001908152602001600020859080600181540180825580915050906001820390600052602060002001600090919290919091505550600260008081526020019081526020016000208590806001815401808255809150509060018203906000526020600020016000909192909190915055507f3249a06bd478adf780bb7930214ad005e9cfa517d63221c0b77f27199d1a58b33386604051808373ffffffffffffffffffffffffffffffffffffffff1673ffffffffffffffffffffffffffffffffffffffff1681526020018281526020019250505060405180910390a160019550505050505095945050505050565b60008080549050905090565b606080600160008473ffffffffffffffffffffffffffffffffffffffff1673ffffffffffffffffffffffffffffffffffffffff16815260200190815260200160002080548060200260200160405190810160405280929190818152602001828054801561175b57602002820191906000526020600020905b815481526020019060010190808311611747575b5050505050905080915050919050565b60016020528160005260406000208181548110151561178657fe5b90600052602060002001600091509150505481565b6000600160008373ffffffffffffffffffffffffffffffffffffffff1673ffffffffffffffffffffffffffffffffffffffff168152602001908152602001600020805490509050919050565b6000808390508073ffffffffffffffffffffffffffffffffffffffff1663095ea7b386856040518363ffffffff167c0100000000000000000000000000000000000000000000000000000000028152600401808373ffffffffffffffffffffffffffffffffffffffff1673ffffffffffffffffffffffffffffffffffffffff16815260200182815260200192505050600060405180830381600087803b15801561189057600080fd5b505af11580156118a4573d6000803e3d6000fd5b505050508073ffffffffffffffffffffffffffffffffffffffff166323b872dd8787866040518463ffffffff167c0100000000000000000000000000000000000000000000000000000000028152600401808473ffffffffffffffffffffffffffffffffffffffff1673ffffffffffffffffffffffffffffffffffffffff1681526020018373ffffffffffffffffffffffffffffffffffffffff1673ffffffffffffffffffffffffffffffffffffffff1681526020018281526020019350505050600060405180830381600087803b15801561197f57600080fd5b505af1158015611993573d6000803e3d6000fd5b505050506001915050949350505050565b6101206040519081016040528060608152602001600081526020016060815260200160008152602001600073ffffffffffffffffffffffffffffffffffffffff168152602001600073ffffffffffffffffffffffffffffffffffffffff168152602001600015158152602001600015158152602001600073ffffffffffffffffffffffffffffffffffffffff1681525090565b828054600181600116156101000203166002900490600052602060002090601f016020900481019282601f10611a7857805160ff1916838001178555611aa6565b82800160010185558215611aa6579182015b82811115611aa5578251825591602001919060010190611a8a565b5b509050611ab39190611ab7565b5090565b611ad991905b80821115611ad5576000816000905550600101611abd565b5090565b905600a165627a7a72305820cbcef1585f2b86d433aa9c75128a7ccf0d48c63d4042d437dc7eec7fb3955b680029",
  "source": "pragma solidity >= 0.4.23;\n\nimport \"./MyNFT.sol\";\n\ncontract Auctions {\n\tAuction[] public auctions;\n \tmapping(address => uint[]) public auctionOwner;\n \tmapping(uint => uint[]) public allAuctionsOwner;\n\n\tstruct Auction {\n\t  string name; // 제목\n\t  uint256 price; // 가격\n\t  string metadata; // 메타데이터 : ipfs hash\n\t  uint256 tokenId; // 토큰 아이디\n\t  address repoAddress; // nft 컨트랙트 어드레스\n\t  address owner; // 소유자\n\t  bool active; //활성화 여부\n\t  bool finalized; //판매 종료여부\n\t\taddress bidder;\n\t}\n\n\tfunction() public {\n\t  revert();\n\t}\n\n\tmodifier contractIsNFTOwner(address _repoAddress, uint256 _tokenId) {\n\t  address nftOwner = MyNFT(_repoAddress).ownerOf(_tokenId);\n\t  require(nftOwner == address(this));\n\t  _;\n\t}\n\n\tfunction createAuction(address _repoAddress, uint256 _tokenId, string _auctionTitle, string _metadata, uint256 _price) public contractIsNFTOwner(_repoAddress, _tokenId) returns(bool) {\n\t\tuint auctionId = auctions.length;\n\t\tAuction memory newAuction;\n\t\tnewAuction.name = _auctionTitle;\n\t\tnewAuction.price = _price;\n\t\tnewAuction.metadata = _metadata;\n\t\tnewAuction.tokenId = _tokenId;\n\t\tnewAuction.repoAddress = _repoAddress;\n\t\tnewAuction.owner = msg.sender;\n\t\tnewAuction.active = true;\n    newAuction.finalized = false;\n\t\tnewAuction.bidder = address(0);\n\n\t\tauctions.push(newAuction);\n\t\tauctionOwner[msg.sender].push(auctionId);\n\t\tallAuctionsOwner[0].push(auctionId);\n\n\t\temit AuctionCreated(msg.sender, auctionId);\n\t\treturn true;\n\t}\n\n\tfunction submitBid(uint _auctionId) public payable {\n\t\tauctions[_auctionId].bidder = msg.sender;\n\t\tauctions[_auctionId].price += 1000000000000000000;\n\t}\n\n\tfunction finalizeAuction(uint _auctionId, address _to) public {\n\t\tAuction memory myAuction = auctions[_auctionId];\n\t\tif(approveAndTransfer(address(this), _to, myAuction.repoAddress, myAuction.tokenId)){\n\t\t    auctions[_auctionId].active = false;\n\t\t    auctions[_auctionId].finalized = true;\n\t\t    emit AuctionFinalized(msg.sender, _auctionId);\n\t\t}\n\t}\n\n\tfunction approveAndTransfer(address _from, address _to, address _repoAddress, uint256 _tokenId) internal returns(bool) {\n\t\tMyNFT remoteContract = MyNFT(_repoAddress);\n\t\tremoteContract.approve(_to, _tokenId);\n\t\tremoteContract.transferFrom(_from, _to, _tokenId);\n\t\treturn true;\n\t}\n\n  function getCount() public constant returns(uint) {\n\t\treturn auctions.length;\n\t}\n\n\tfunction getAuctionsOf(address _owner) public constant returns(uint[]) {\n\t\tuint[] memory ownedAuctions = auctionOwner[_owner];\n\t\treturn ownedAuctions;\n\t}\n\n\tfunction getAllAuctionsOf() public constant returns(uint[]) {\n\t\tuint[] memory allAuctions = allAuctionsOwner[0];\n\t\treturn allAuctions;\n\t}\n\n\tfunction getAuctionsCountOfOwner(address _owner) public constant returns(uint) {\n\t\treturn auctionOwner[_owner].length;\n\t}\n\n\tfunction getAuctionById(uint _auctionId) public constant returns(\n\t\tstring name,\n\t\tuint256 price,\n\t\tstring metadata,\n\t\tuint256 tokenId,\n\t\taddress repoAddress,\n\t\taddress owner,\n\t\tbool active,\n\t\tbool finalized,\n\t\taddress bidder) {\n\t\tAuction memory auc = auctions[_auctionId];\n\t\treturn (\n\t\t\tauc.name,\n\t\t\tauc.price,\n\t\t\tauc.metadata,\n\t\t\tauc.tokenId,\n\t\t\tauc.repoAddress,\n\t\t\tauc.owner,\n\t\t\tauc.active,\n\t\t\tauc.finalized,\n\t\t\tauc.bidder);\n\t}\n\n\tevent AuctionCreated(address _owner, uint _auctionId);\n\tevent AuctionFinalized(address _owner, uint _auctionId);\n}\n",
  "sourcePath": "C:/Users/user/Desktop/nft-vue/backend/contracts/Auctions.sol",
  "compiler": {
    "name": "solc",
    "version": "0.4.24+commit.e67f0147.Emscripten.clang"
  },
  "schemaVersion": "3.0.6",
  "updatedAt": "2019-12-06T09:21:16.036Z",
  "devdoc": {
    "methods": {}
  },
  "userdoc": {
    "methods": {}
  }
}